{
  "address": "0xBd01f1F474584F8BaE07E53bB763378e9566D2e6",
  "abi": [
    {
      "inputs": [
        {
          "internalType": "contract IERC20",
          "name": "_asset",
          "type": "address"
        }
      ],
      "stateMutability": "nonpayable",
      "type": "constructor"
    },
    {
      "anonymous": false,
      "inputs": [
        {
          "indexed": true,
          "internalType": "address",
          "name": "owner",
          "type": "address"
        },
        {
          "indexed": true,
          "internalType": "address",
          "name": "spender",
          "type": "address"
        },
        {
          "indexed": false,
          "internalType": "uint256",
          "name": "value",
          "type": "uint256"
        }
      ],
      "name": "Approval",
      "type": "event"
    },
    {
      "anonymous": false,
      "inputs": [],
      "name": "EIP712DomainChanged",
      "type": "event"
    },
    {
      "anonymous": false,
      "inputs": [
        {
          "indexed": false,
          "internalType": "uint8",
          "name": "version",
          "type": "uint8"
        }
      ],
      "name": "Initialized",
      "type": "event"
    },
    {
      "anonymous": false,
      "inputs": [
        {
          "indexed": true,
          "internalType": "address",
          "name": "previousOwner",
          "type": "address"
        },
        {
          "indexed": true,
          "internalType": "address",
          "name": "newOwner",
          "type": "address"
        }
      ],
      "name": "OwnershipTransferStarted",
      "type": "event"
    },
    {
      "anonymous": false,
      "inputs": [
        {
          "indexed": true,
          "internalType": "address",
          "name": "previousOwner",
          "type": "address"
        },
        {
          "indexed": true,
          "internalType": "address",
          "name": "newOwner",
          "type": "address"
        }
      ],
      "name": "OwnershipTransferred",
      "type": "event"
    },
    {
      "anonymous": false,
      "inputs": [
        {
          "indexed": false,
          "internalType": "address",
          "name": "account",
          "type": "address"
        }
      ],
      "name": "Paused",
      "type": "event"
    },
    {
      "anonymous": false,
      "inputs": [
        {
          "indexed": true,
          "internalType": "address",
          "name": "from",
          "type": "address"
        },
        {
          "indexed": true,
          "internalType": "address",
          "name": "to",
          "type": "address"
        },
        {
          "indexed": false,
          "internalType": "uint256",
          "name": "value",
          "type": "uint256"
        }
      ],
      "name": "Transfer",
      "type": "event"
    },
    {
      "anonymous": false,
      "inputs": [
        {
          "indexed": false,
          "internalType": "address",
          "name": "account",
          "type": "address"
        }
      ],
      "name": "Unpaused",
      "type": "event"
    },
    {
      "anonymous": false,
      "inputs": [
        {
          "indexed": false,
          "internalType": "address",
          "name": "account",
          "type": "address"
        }
      ],
      "name": "WhitelistAdded",
      "type": "event"
    },
    {
      "anonymous": false,
      "inputs": [
        {
          "indexed": false,
          "internalType": "address",
          "name": "account",
          "type": "address"
        }
      ],
      "name": "WhitelistRemoved",
      "type": "event"
    },
    {
      "inputs": [],
      "name": "DOMAIN_SEPARATOR",
      "outputs": [
        {
          "internalType": "bytes32",
          "name": "",
          "type": "bytes32"
        }
      ],
      "stateMutability": "view",
      "type": "function"
    },
    {
      "inputs": [
        {
          "internalType": "address",
          "name": "_account",
          "type": "address"
        }
      ],
      "name": "_addWhitelist",
      "outputs": [],
      "stateMutability": "nonpayable",
      "type": "function"
    },
    {
      "inputs": [],
      "name": "_close",
      "outputs": [],
      "stateMutability": "nonpayable",
      "type": "function"
    },
    {
      "inputs": [],
      "name": "_open",
      "outputs": [],
      "stateMutability": "nonpayable",
      "type": "function"
    },
    {
      "inputs": [
        {
          "internalType": "address",
          "name": "_account",
          "type": "address"
        }
      ],
      "name": "_removeWhitelist",
      "outputs": [],
      "stateMutability": "nonpayable",
      "type": "function"
    },
    {
      "inputs": [
        {
          "internalType": "contract IiToken",
          "name": "_iToken",
          "type": "address"
        }
      ],
      "name": "_setLending",
      "outputs": [],
      "stateMutability": "nonpayable",
      "type": "function"
    },
    {
      "inputs": [],
      "name": "acceptOwnership",
      "outputs": [],
      "stateMutability": "nonpayable",
      "type": "function"
    },
    {
      "inputs": [
        {
          "internalType": "address",
          "name": "owner",
          "type": "address"
        },
        {
          "internalType": "address",
          "name": "spender",
          "type": "address"
        }
      ],
      "name": "allowance",
      "outputs": [
        {
          "internalType": "uint256",
          "name": "",
          "type": "uint256"
        }
      ],
      "stateMutability": "view",
      "type": "function"
    },
    {
      "inputs": [
        {
          "internalType": "address",
          "name": "spender",
          "type": "address"
        },
        {
          "internalType": "uint256",
          "name": "amount",
          "type": "uint256"
        }
      ],
      "name": "approve",
      "outputs": [
        {
          "internalType": "bool",
          "name": "",
          "type": "bool"
        }
      ],
      "stateMutability": "nonpayable",
      "type": "function"
    },
    {
      "inputs": [],
      "name": "asset",
      "outputs": [
        {
          "internalType": "contract IERC20",
          "name": "",
          "type": "address"
        }
      ],
      "stateMutability": "view",
      "type": "function"
    },
    {
      "inputs": [],
      "name": "assetConsumed",
      "outputs": [
        {
          "internalType": "uint256",
          "name": "",
          "type": "uint256"
        }
      ],
      "stateMutability": "view",
      "type": "function"
    },
    {
      "inputs": [],
      "name": "assetQuota",
      "outputs": [
        {
          "internalType": "uint256",
          "name": "",
          "type": "uint256"
        }
      ],
      "stateMutability": "view",
      "type": "function"
    },
    {
      "inputs": [
        {
          "internalType": "address",
          "name": "account",
          "type": "address"
        }
      ],
      "name": "balanceOf",
      "outputs": [
        {
          "internalType": "uint256",
          "name": "",
          "type": "uint256"
        }
      ],
      "stateMutability": "view",
      "type": "function"
    },
    {
      "inputs": [
        {
          "internalType": "address",
          "name": "_to",
          "type": "address"
        },
        {
          "internalType": "uint256",
          "name": "_ethAmount",
          "type": "uint256"
        }
      ],
      "name": "claimETH",
      "outputs": [],
      "stateMutability": "nonpayable",
      "type": "function"
    },
    {
      "inputs": [],
      "name": "decimals",
      "outputs": [
        {
          "internalType": "uint8",
          "name": "",
          "type": "uint8"
        }
      ],
      "stateMutability": "view",
      "type": "function"
    },
    {
      "inputs": [
        {
          "internalType": "address",
          "name": "spender",
          "type": "address"
        },
        {
          "internalType": "uint256",
          "name": "subtractedValue",
          "type": "uint256"
        }
      ],
      "name": "decreaseAllowance",
      "outputs": [
        {
          "internalType": "bool",
          "name": "",
          "type": "bool"
        }
      ],
      "stateMutability": "nonpayable",
      "type": "function"
    },
    {
      "inputs": [],
      "name": "depositStatus",
      "outputs": [
        {
          "internalType": "bool",
          "name": "_mintPaused",
          "type": "bool"
        }
      ],
      "stateMutability": "view",
      "type": "function"
    },
    {
      "inputs": [],
      "name": "eip712Domain",
      "outputs": [
        {
          "internalType": "bytes1",
          "name": "fields",
          "type": "bytes1"
        },
        {
          "internalType": "string",
          "name": "name",
          "type": "string"
        },
        {
          "internalType": "string",
          "name": "version",
          "type": "string"
        },
        {
          "internalType": "uint256",
          "name": "chainId",
          "type": "uint256"
        },
        {
          "internalType": "address",
          "name": "verifyingContract",
          "type": "address"
        },
        {
          "internalType": "bytes32",
          "name": "salt",
          "type": "bytes32"
        },
        {
          "internalType": "uint256[]",
          "name": "extensions",
          "type": "uint256[]"
        }
      ],
      "stateMutability": "view",
      "type": "function"
    },
    {
      "inputs": [],
      "name": "exchangeRate",
      "outputs": [
        {
          "internalType": "uint256",
          "name": "",
          "type": "uint256"
        }
      ],
      "stateMutability": "view",
      "type": "function"
    },
    {
      "inputs": [
        {
          "internalType": "uint256",
          "name": "_ethAmount",
          "type": "uint256"
        }
      ],
      "name": "getIutputAsset",
      "outputs": [
        {
          "internalType": "uint256",
          "name": "_assetAmount",
          "type": "uint256"
        }
      ],
      "stateMutability": "view",
      "type": "function"
    },
    {
      "inputs": [
        {
          "internalType": "uint256",
          "name": "_assetAmount",
          "type": "uint256"
        }
      ],
      "name": "getIutputEth",
      "outputs": [
        {
          "internalType": "uint256",
          "name": "_ethAmount",
          "type": "uint256"
        }
      ],
      "stateMutability": "view",
      "type": "function"
    },
    {
      "inputs": [
        {
          "internalType": "uint256",
          "name": "_ethAmount",
          "type": "uint256"
        }
      ],
      "name": "getOutputAsset",
      "outputs": [
        {
          "internalType": "uint256",
          "name": "_assetAmount",
          "type": "uint256"
        }
      ],
      "stateMutability": "view",
      "type": "function"
    },
    {
      "inputs": [
        {
          "internalType": "uint256",
          "name": "_assetAmount",
          "type": "uint256"
        }
      ],
      "name": "getOutputEth",
      "outputs": [
        {
          "internalType": "uint256",
          "name": "_ethAmount",
          "type": "uint256"
        }
      ],
      "stateMutability": "view",
      "type": "function"
    },
    {
      "inputs": [],
      "name": "getUnderlyingPrice",
      "outputs": [
        {
          "internalType": "uint256",
          "name": "",
          "type": "uint256"
        }
      ],
      "stateMutability": "nonpayable",
      "type": "function"
    },
    {
      "inputs": [],
      "name": "iToken",
      "outputs": [
        {
          "internalType": "contract IiToken",
          "name": "",
          "type": "address"
        }
      ],
      "stateMutability": "view",
      "type": "function"
    },
    {
      "inputs": [
        {
          "internalType": "address",
          "name": "spender",
          "type": "address"
        },
        {
          "internalType": "uint256",
          "name": "addedValue",
          "type": "uint256"
        }
      ],
      "name": "increaseAllowance",
      "outputs": [
        {
          "internalType": "bool",
          "name": "",
          "type": "bool"
        }
      ],
      "stateMutability": "nonpayable",
      "type": "function"
    },
    {
      "inputs": [
        {
          "internalType": "string",
          "name": "_name",
          "type": "string"
        },
        {
          "internalType": "string",
          "name": "_symbol",
          "type": "string"
        }
      ],
      "name": "initialize",
      "outputs": [],
      "stateMutability": "nonpayable",
      "type": "function"
    },
    {
      "inputs": [
        {
          "internalType": "address",
          "name": "_account",
          "type": "address"
        }
      ],
      "name": "isWhitelist",
      "outputs": [
        {
          "internalType": "bool",
          "name": "",
          "type": "bool"
        }
      ],
      "stateMutability": "view",
      "type": "function"
    },
    {
      "inputs": [],
      "name": "lendingCash",
      "outputs": [
        {
          "internalType": "uint256",
          "name": "",
          "type": "uint256"
        }
      ],
      "stateMutability": "view",
      "type": "function"
    },
    {
      "inputs": [],
      "name": "limitOfDeposit",
      "outputs": [
        {
          "internalType": "uint256",
          "name": "_depositLimit",
          "type": "uint256"
        }
      ],
      "stateMutability": "nonpayable",
      "type": "function"
    },
    {
      "inputs": [],
      "name": "name",
      "outputs": [
        {
          "internalType": "string",
          "name": "",
          "type": "string"
        }
      ],
      "stateMutability": "view",
      "type": "function"
    },
    {
      "inputs": [
        {
          "internalType": "address",
          "name": "owner",
          "type": "address"
        }
      ],
      "name": "nonces",
      "outputs": [
        {
          "internalType": "uint256",
          "name": "",
          "type": "uint256"
        }
      ],
      "stateMutability": "view",
      "type": "function"
    },
    {
      "inputs": [],
      "name": "owner",
      "outputs": [
        {
          "internalType": "address",
          "name": "",
          "type": "address"
        }
      ],
      "stateMutability": "view",
      "type": "function"
    },
    {
      "inputs": [],
      "name": "paused",
      "outputs": [
        {
          "internalType": "bool",
          "name": "",
          "type": "bool"
        }
      ],
      "stateMutability": "view",
      "type": "function"
    },
    {
      "inputs": [],
      "name": "pendingOwner",
      "outputs": [
        {
          "internalType": "address",
          "name": "",
          "type": "address"
        }
      ],
      "stateMutability": "view",
      "type": "function"
    },
    {
      "inputs": [
        {
          "internalType": "address",
          "name": "owner",
          "type": "address"
        },
        {
          "internalType": "address",
          "name": "spender",
          "type": "address"
        },
        {
          "internalType": "uint256",
          "name": "value",
          "type": "uint256"
        },
        {
          "internalType": "uint256",
          "name": "deadline",
          "type": "uint256"
        },
        {
          "internalType": "uint8",
          "name": "v",
          "type": "uint8"
        },
        {
          "internalType": "bytes32",
          "name": "r",
          "type": "bytes32"
        },
        {
          "internalType": "bytes32",
          "name": "s",
          "type": "bytes32"
        }
      ],
      "name": "permit",
      "outputs": [],
      "stateMutability": "nonpayable",
      "type": "function"
    },
    {
      "inputs": [],
      "name": "renounceOwnership",
      "outputs": [],
      "stateMutability": "nonpayable",
      "type": "function"
    },
    {
      "inputs": [],
      "name": "symbol",
      "outputs": [
        {
          "internalType": "string",
          "name": "",
          "type": "string"
        }
      ],
      "stateMutability": "view",
      "type": "function"
    },
    {
      "inputs": [],
      "name": "totalAsset",
      "outputs": [
        {
          "internalType": "uint256",
          "name": "",
          "type": "uint256"
        }
      ],
      "stateMutability": "view",
      "type": "function"
    },
    {
      "inputs": [],
      "name": "totalSupply",
      "outputs": [
        {
          "internalType": "uint256",
          "name": "",
          "type": "uint256"
        }
      ],
      "stateMutability": "view",
      "type": "function"
    },
    {
      "inputs": [
        {
          "internalType": "address",
          "name": "to",
          "type": "address"
        },
        {
          "internalType": "uint256",
          "name": "amount",
          "type": "uint256"
        }
      ],
      "name": "transfer",
      "outputs": [
        {
          "internalType": "bool",
          "name": "",
          "type": "bool"
        }
      ],
      "stateMutability": "nonpayable",
      "type": "function"
    },
    {
      "inputs": [
        {
          "internalType": "address",
          "name": "from",
          "type": "address"
        },
        {
          "internalType": "address",
          "name": "to",
          "type": "address"
        },
        {
          "internalType": "uint256",
          "name": "amount",
          "type": "uint256"
        }
      ],
      "name": "transferFrom",
      "outputs": [
        {
          "internalType": "bool",
          "name": "",
          "type": "bool"
        }
      ],
      "stateMutability": "nonpayable",
      "type": "function"
    },
    {
      "inputs": [
        {
          "internalType": "address",
          "name": "newOwner",
          "type": "address"
        }
      ],
      "name": "transferOwnership",
      "outputs": [],
      "stateMutability": "nonpayable",
      "type": "function"
    },
    {
      "inputs": [
        {
          "internalType": "address",
          "name": "_to",
          "type": "address"
        },
        {
          "internalType": "uint256",
          "name": "_amount",
          "type": "uint256"
        }
      ],
      "name": "unwrapToAsset",
      "outputs": [],
      "stateMutability": "nonpayable",
      "type": "function"
    },
    {
      "inputs": [
        {
          "internalType": "uint256",
          "name": "_amount",
          "type": "uint256"
        }
      ],
      "name": "unwrapToAsset",
      "outputs": [],
      "stateMutability": "nonpayable",
      "type": "function"
    },
    {
      "inputs": [],
      "name": "whitelists",
      "outputs": [
        {
          "internalType": "address[]",
          "name": "_whitelists",
          "type": "address[]"
        }
      ],
      "stateMutability": "view",
      "type": "function"
    },
    {
      "inputs": [
        {
          "internalType": "address",
          "name": "_to",
          "type": "address"
        },
        {
          "internalType": "uint256",
          "name": "_iTokenAmount",
          "type": "uint256"
        }
      ],
      "name": "withdrawAndUnwrapToAsset",
      "outputs": [],
      "stateMutability": "nonpayable",
      "type": "function"
    },
    {
      "inputs": [
        {
          "internalType": "uint256",
          "name": "_iTokenAmount",
          "type": "uint256"
        }
      ],
      "name": "withdrawAndUnwrapToAsset",
      "outputs": [],
      "stateMutability": "nonpayable",
      "type": "function"
    },
    {
      "inputs": [],
      "name": "withdrawStatus",
      "outputs": [
        {
          "internalType": "bool",
          "name": "_redeemPaused",
          "type": "bool"
        }
      ],
      "stateMutability": "view",
      "type": "function"
    },
    {
      "inputs": [
        {
          "internalType": "address",
          "name": "_to",
          "type": "address"
        },
        {
          "internalType": "uint256",
          "name": "_amount",
          "type": "uint256"
        }
      ],
      "name": "withdrawUnderlyingAndUnwrapToAsset",
      "outputs": [],
      "stateMutability": "nonpayable",
      "type": "function"
    },
    {
      "inputs": [
        {
          "internalType": "uint256",
          "name": "_amount",
          "type": "uint256"
        }
      ],
      "name": "withdrawUnderlyingAndUnwrapToAsset",
      "outputs": [],
      "stateMutability": "nonpayable",
      "type": "function"
    },
    {
      "inputs": [
        {
          "internalType": "address",
          "name": "_to",
          "type": "address"
        }
      ],
      "name": "wrap",
      "outputs": [
        {
          "internalType": "uint256",
          "name": "",
          "type": "uint256"
        }
      ],
      "stateMutability": "payable",
      "type": "function"
    },
    {
      "inputs": [],
      "name": "wrap",
      "outputs": [
        {
          "internalType": "uint256",
          "name": "",
          "type": "uint256"
        }
      ],
      "stateMutability": "payable",
      "type": "function"
    },
    {
      "inputs": [],
      "name": "wrapAndDeposit",
      "outputs": [
        {
          "internalType": "uint256",
          "name": "_amount",
          "type": "uint256"
        }
      ],
      "stateMutability": "payable",
      "type": "function"
    },
    {
      "inputs": [
        {
          "internalType": "address",
          "name": "_to",
          "type": "address"
        }
      ],
      "name": "wrapAndDeposit",
      "outputs": [
        {
          "internalType": "uint256",
          "name": "_amount",
          "type": "uint256"
        }
      ],
      "stateMutability": "payable",
      "type": "function"
    },
    {
      "stateMutability": "payable",
      "type": "receive"
    }
  ],
  "transactionHash": "0x793706ac10461801342d522812b790d7754a46627be13ddedad331067afa46da",
  "args": [
    "0x92a38d33007896DbE401eF1Ac4986D811874C8B7"
  ],
  "numDeployments": 1,
  "solcInputHash": "a54e8f8951cc89282681272b337ee4ff",
  "bytecode": "0x60a06040523480156200001157600080fd5b50604051620040bc380380620040bc833981016040819052620000349162000113565b6001600160a01b0381166080526200004b62000052565b5062000145565b600054610100900460ff1615620000bf5760405162461bcd60e51b815260206004820152602760248201527f496e697469616c697a61626c653a20636f6e747261637420697320696e697469604482015266616c697a696e6760c81b606482015260840160405180910390fd5b60005460ff9081161462000111576000805460ff191660ff9081179091556040519081527f7f26b83ff96e1f2b6a682f133852f6798a09c465da95921460cefb38474024989060200160405180910390a15b565b6000602082840312156200012657600080fd5b81516001600160a01b03811681146200013e57600080fd5b9392505050565b608051613f3f6200017d600039600081816104bc01528181611a3901528181611df60152818161218e0152612b0f0152613f3f6000f3fe6080604052600436106103645760003560e01c806373c4b95a116101c6578063c683630d116100f7578063e817f7a211610095578063f81a5e751161006f578063f81a5e7514610964578063f9557ccb14610984578063fc49b62314610999578063fd3813ce146109b957600080fd5b8063e817f7a21461090f578063f2fde38b14610924578063f785c4811461094457600080fd5b8063d505accf116100d1578063d505accf1461086b578063dd62ed3e1461088b578063e30c3978146108d1578063e7aa3f2e146108ef57600080fd5b8063c683630d14610823578063cc64ecf214610843578063d46eb1191461086357600080fd5b80638605ff661161016457806395d89b411161013e57806395d89b41146107ae578063a457c2d7146107c3578063a9059cbb146107e3578063bb1370c51461080357600080fd5b80638605ff66146107665780638da5cb5b1461077b5780639057b67f1461079957600080fd5b80637ecebe00116101a05780637ecebe00146106e95780637f4e3076146107095780638398a7451461071e57806384b0196e1461073e57600080fd5b806373c4b95a146106945780637664c4b8146106b457806379ba5097146106d457600080fd5b80633ba0b9a9116102a057806357e8bb3c1161023e57806361ffe8581161021857806361ffe8581461061f5780636c0712691461063457806370a0823114610649578063715018a61461067f57600080fd5b806357e8bb3c146105d25780635c975abb146105e55780635e2d5fb5146105fd57600080fd5b8063408cfe241161027a578063408cfe241461055e578063468f02d21461057d57806349748a11146105925780634cd88b76146105b257600080fd5b80633ba0b9a9146105145780633c82a45a146105295780633f365fca1461054957600080fd5b806318160ddd1161030d578063313ce567116102e7578063313ce5671461047c5780633644e5151461049857806338d52e0f146104ad57806339509351146104f457600080fd5b806318160ddd1461043f57806323b872dd1461045457806328b564a01461047457600080fd5b80630b94de9c1161033e5780630b94de9c146103e85780630f149cce1461040a57806311c592191461041f57600080fd5b8063023276f01461037057806306fdde0314610396578063095ea7b3146103b857600080fd5b3661036b57005b600080fd5b61038361037e366004613941565b6109d9565b6040519081526020015b60405180910390f35b3480156103a257600080fd5b506103ab6109eb565b60405161038d91906139b6565b3480156103c457600080fd5b506103d86103d33660046139c9565b610a7d565b604051901515815260200161038d565b3480156103f457600080fd5b506104086104033660046139c9565b610a95565b005b34801561041657600080fd5b506103d8610b70565b34801561042b57600080fd5b5061040861043a3660046139c9565b610c72565b34801561044b57600080fd5b5060cb54610383565b34801561046057600080fd5b506103d861046f3660046139f5565b610c81565b610383610ca5565b34801561048857600080fd5b506040516012815260200161038d565b3480156104a457600080fd5b50610383610cc0565b3480156104b957600080fd5b507f00000000000000000000000000000000000000000000000000000000000000005b6040516001600160a01b03909116815260200161038d565b34801561050057600080fd5b506103d861050f3660046139c9565b610ccf565b34801561052057600080fd5b50610383610d0e565b34801561053557600080fd5b50610408610544366004613941565b610d18565b34801561055557600080fd5b50610383610e14565b34801561056a57600080fd5b50610164546001600160a01b03166104dc565b34801561058957600080fd5b50610383610e9c565b34801561059e57600080fd5b506104086105ad366004613a36565b610ea6565b3480156105be57600080fd5b506104086105cd366004613af2565b610eb1565b6103836105e0366004613941565b610fed565b3480156105f157600080fd5b5060975460ff166103d8565b34801561060957600080fd5b5061061261100a565b60405161038d9190613b56565b34801561062b57600080fd5b506103d8611017565b34801561064057600080fd5b50610408611118565b34801561065557600080fd5b50610383610664366004613941565b6001600160a01b0316600090815260c9602052604090205490565b34801561068b57600080fd5b5061040861112a565b3480156106a057600080fd5b506104086106af3660046139c9565b61113c565b3480156106c057600080fd5b506104086106cf366004613941565b6111ff565b3480156106e057600080fd5b50610408611210565b3480156106f557600080fd5b50610383610704366004613941565b61129b565b34801561071557600080fd5b506104086112ba565b34801561072a57600080fd5b50610383610739366004613a36565b6112ca565b34801561074a57600080fd5b506107536112d5565b60405161038d9796959493929190613b97565b34801561077257600080fd5b50610383611397565b34801561078757600080fd5b506033546001600160a01b03166104dc565b3480156107a557600080fd5b506103836115b5565b3480156107ba57600080fd5b506103ab6115bf565b3480156107cf57600080fd5b506103d86107de3660046139c9565b6115ce565b3480156107ef57600080fd5b506103d86107fe3660046139c9565b611678565b34801561080f57600080fd5b5061040861081e366004613a36565b611686565b34801561082f57600080fd5b506103d861083e366004613941565b61173a565b34801561084f57600080fd5b5061040861085e366004613941565b611760565b610383611771565b34801561087757600080fd5b50610408610886366004613c49565b61177d565b34801561089757600080fd5b506103836108a6366004613cc0565b6001600160a01b03918216600090815260ca6020908152604080832093909416825291909152205490565b3480156108dd57600080fd5b506065546001600160a01b03166104dc565b3480156108fb57600080fd5b5061040861090a3660046139c9565b6118e1565b34801561091b57600080fd5b5061038361196a565b34801561093057600080fd5b5061040861093f366004613941565b611974565b34801561095057600080fd5b5061038361095f366004613a36565b6119f2565b34801561097057600080fd5b5061038361097f366004613a36565b6119fd565b34801561099057600080fd5b50610383611a08565b3480156109a557600080fd5b506103836109b4366004613a36565b611a89565b3480156109c557600080fd5b506104086109d4366004613a36565b611a94565b60006109e58234611b1d565b92915050565b606060cc80546109fa90613cf9565b80601f0160208091040260200160405190810160405280929190818152602001828054610a2690613cf9565b8015610a735780601f10610a4857610100808354040283529160200191610a73565b820191906000526020600020905b815481529060010190602001808311610a5657829003601f168201915b5050505050905090565b600033610a8b818585611b93565b5060019392505050565b610a9e3361173a565b610b155760405162461bcd60e51b815260206004820152602d60248201527f6f6e6c7957686974656c6973743a2063616c6c6572206973206e6f7420696e2060448201527f7468652077686974656c6973740000000000000000000000000000000000000060648201526084015b60405180910390fd5b60408051602080820183526000825282518084019093528083527f636c61696d4554483a205472616e73666572204554482072657665727465642e90830152610b6b916001600160a01b03851691908490611ceb565b505050565b61016454604080517ff77c479100000000000000000000000000000000000000000000000000000000815290516000926001600160a01b03169163f77c47919160048083019260209291908290030181865afa158015610bd4573d6000803e3d6000fd5b505050506040513d601f19601f82011682018060405250810190610bf89190613d2e565b61016454604051638e8f294b60e01b81526001600160a01b039182166004820152911690638e8f294b9060240160e060405180830381865afa158015610c42573d6000803e3d6000fd5b505050506040513d601f19601f82011682018060405250810190610c669190613d5b565b50909695505050505050565b610c7d338383611ddf565b5050565b600033610c8f858285611e1d565b610c9a858585611eaf565b506001949350505050565b6000610cb13034611b1d565b9050610cbd33826120ae565b90565b6000610cca61214b565b905090565b33600081815260ca602090815260408083206001600160a01b0387168452909152812054909190610a8b9082908690610d09908790613ddb565b611b93565b6000610cca612155565b610d206121c5565b306001600160a01b0316816001600160a01b0316636f307dc36040518163ffffffff1660e01b8152600401602060405180830381865afa158015610d68573d6000803e3d6000fd5b505050506040513d601f19601f82011682018060405250810190610d8c9190613d2e565b6001600160a01b031614610e085760405162461bcd60e51b815260206004820152603560248201527f5f7365744c656e64696e673a20756e6465726c79696e6720616464726573732060448201527f6d757374206265207468697320636f6e747261637400000000000000000000006064820152608401610b0c565b610e118161221f565b50565b61016454604080517f3b1d21a200000000000000000000000000000000000000000000000000000000815290516000926001600160a01b031691633b1d21a29160048083019260209291908290030181865afa158015610e78573d6000803e3d6000fd5b505050506040513d601f19601f82011682018060405250810190610cca9190613df3565b6000610cca612323565b610e11333383611ddf565b600054610100900460ff1615808015610ed15750600054600160ff909116105b80610eeb5750303b158015610eeb575060005460ff166001145b610f5d5760405162461bcd60e51b815260206004820152602e60248201527f496e697469616c697a61626c653a20636f6e747261637420697320616c72656160448201527f647920696e697469616c697a65640000000000000000000000000000000000006064820152608401610b0c565b6000805460ff191660011790558015610f80576000805461ff0019166101001790555b610f88612511565b610f90612584565b610f9a83836125f7565b610fa38361266c565b8015610b6b576000805461ff0019169055604051600181527f7f26b83ff96e1f2b6a682f133852f6798a09c465da95921460cefb38474024989060200160405180910390a1505050565b6000610ff93034611b1d565b905061100582826120ae565b919050565b6060610cca610162612716565b61016454604080517ff77c479100000000000000000000000000000000000000000000000000000000815290516000926001600160a01b03169163f77c47919160048083019260209291908290030181865afa15801561107b573d6000803e3d6000fd5b505050506040513d601f19601f8201168201806040525081019061109f9190613d2e565b61016454604051638e8f294b60e01b81526001600160a01b039182166004820152911690638e8f294b9060240160e060405180830381865afa1580156110e9573d6000803e3d6000fd5b505050506040513d601f19601f8201168201806040525081019061110d9190613d5b565b509695505050505050565b6111206121c5565b611128612723565b565b6111326121c5565b611128600061277d565b30600090815260c96020526040812054610164546040517f1e9a6950000000000000000000000000000000000000000000000000000000008152336004820152602481018590529192506001600160a01b031690631e9a695090604401600060405180830381600087803b1580156111b357600080fd5b505af11580156111c7573d6000803e3d6000fd5b50505050610b6b3084836111f0306001600160a01b0316600090815260c9602052604090205490565b6111fa9190613e0c565b611ddf565b6112076121c5565b610e11816127a3565b60655433906001600160a01b031681146112925760405162461bcd60e51b815260206004820152602960248201527f4f776e61626c6532537465703a2063616c6c6572206973206e6f74207468652060448201527f6e6577206f776e657200000000000000000000000000000000000000000000006064820152608401610b0c565b610e118161277d565b6001600160a01b038116600090815261012f60205260408120546109e5565b6112c26121c5565b611128612861565b60006109e58261289a565b60006060806000806000606060fb546000801b1480156112f5575060fc54155b6113415760405162461bcd60e51b815260206004820152601560248201527f4549503731323a20556e696e697469616c697a656400000000000000000000006044820152606401610b0c565b6113496128d3565b6113516128e2565b604080516000808252602082019092527f0f000000000000000000000000000000000000000000000000000000000000009b939a50919850469750309650945092509050565b60008061016460009054906101000a90046001600160a01b03166001600160a01b031663f77c47916040518163ffffffff1660e01b8152600401602060405180830381865afa1580156113ee573d6000803e3d6000fd5b505050506040513d601f19601f820116820180604052508101906114129190613d2e565b61016454604051638e8f294b60e01b81526001600160a01b039182166004820152911690638e8f294b9060240160e060405180830381865afa15801561145c573d6000803e3d6000fd5b505050506040513d601f19601f820116820180604052508101906114809190613d5b565b50505093505050506000670de0b6b3a764000061016460009054906101000a90046001600160a01b03166001600160a01b031663bd6d894d6040518163ffffffff1660e01b81526004016020604051808303816000875af11580156114e9573d6000803e3d6000fd5b505050506040513d601f19601f8201168201806040525081019061150d9190613df3565b61016460009054906101000a90046001600160a01b03166001600160a01b03166318160ddd6040518163ffffffff1660e01b8152600401602060405180830381865afa158015611561573d6000803e3d6000fd5b505050506040513d601f19601f820116820180604052508101906115859190613df3565b61158f9190613e23565b6115999190613e42565b9050808211156115b0576115ad8183613e0c565b92505b505090565b6000610cca6128f1565b606060cd80546109fa90613cf9565b33600081815260ca602090815260408083206001600160a01b03871684529091528120549091908381101561166b5760405162461bcd60e51b815260206004820152602560248201527f45524332303a2064656372656173656420616c6c6f77616e63652062656c6f7760448201527f207a65726f0000000000000000000000000000000000000000000000000000006064820152608401610b0c565b610c9a8286868403611b93565b600033610a8b818585611eaf565b30600090815260c96020526040812054610164546040517f1e9a6950000000000000000000000000000000000000000000000000000000008152336004820152602481018590529192506001600160a01b031690631e9a695090604401600060405180830381600087803b1580156116fd57600080fd5b505af1158015611711573d6000803e3d6000fd5b50505050610c7d3033836111f0306001600160a01b0316600090815260c9602052604090205490565b6000611745826128fc565b806109e55750506033546001600160a01b0391821691161490565b6117686121c5565b610e118161290a565b6000610cca3334611b1d565b834211156117cd5760405162461bcd60e51b815260206004820152601d60248201527f45524332305065726d69743a206578706972656420646561646c696e650000006044820152606401610b0c565b60007f6e71edae12b1b97f4d1f60370fef10105fa2faae0126114a169c64845d6126c98888886117fc8c612a3d565b6040805160208101969096526001600160a01b0394851690860152929091166060840152608083015260a082015260c0810186905260e001604051602081830303815290604052805190602001209050600061185782612a64565b9050600061186782878787612aac565b9050896001600160a01b0316816001600160a01b0316146118ca5760405162461bcd60e51b815260206004820152601e60248201527f45524332305065726d69743a20696e76616c6964207369676e617475726500006044820152606401610b0c565b6118d58a8a8a611b93565b50505050505050505050565b610164546040517f96294178000000000000000000000000000000000000000000000000000000008152336004820152602481018390526001600160a01b0390911690639629417890604401600060405180830381600087803b15801561194757600080fd5b505af115801561195b573d6000803e3d6000fd5b50505050610c7d308383611ddf565b6000610cca612ad4565b61197c6121c5565b606580546001600160a01b03831673ffffffffffffffffffffffffffffffffffffffff1990911681179091556119ba6033546001600160a01b031690565b6001600160a01b03167f38d16b8cac22d99fc7c124b9cd0de2d3fa1faef420bfe791d8c362d765e2270060405160405180910390a350565b60006109e582612b86565b60006109e582612ba2565b6040517f70a082310000000000000000000000000000000000000000000000000000000081523060048201526000907f00000000000000000000000000000000000000000000000000000000000000006001600160a01b0316906370a08231906024015b602060405180830381865afa158015610e78573d6000803e3d6000fd5b60006109e582612be1565b610164546040517f96294178000000000000000000000000000000000000000000000000000000008152336004820152602481018390526001600160a01b0390911690639629417890604401600060405180830381600087803b158015611afa57600080fd5b505af1158015611b0e573d6000803e3d6000fd5b50505050610e11303383611ddf565b600080611b2983612be1565b9050611b33612ad4565b811015611b825760405162461bcd60e51b815260206004820152601f60248201527f5f777261703a20696e73756666696369656e742061737365742071756f7461006044820152606401610b0c565b611b8c8482612bfe565b9392505050565b6001600160a01b038316611c0e5760405162461bcd60e51b8152602060048201526024808201527f45524332303a20617070726f76652066726f6d20746865207a65726f2061646460448201527f72657373000000000000000000000000000000000000000000000000000000006064820152608401610b0c565b6001600160a01b038216611c8a5760405162461bcd60e51b815260206004820152602260248201527f45524332303a20617070726f766520746f20746865207a65726f20616464726560448201527f73730000000000000000000000000000000000000000000000000000000000006064820152608401610b0c565b6001600160a01b03838116600081815260ca602090815260408083209487168084529482529182902085905590518481527f8c5be1e5ebec7d5bd14f71427d1e84f3dd0314c0f7b2291e5b200ac8c7c3b925910160405180910390a3505050565b606082471015611d635760405162461bcd60e51b815260206004820152602660248201527f416464726573733a20696e73756666696369656e742062616c616e636520666f60448201527f722063616c6c00000000000000000000000000000000000000000000000000006064820152608401610b0c565b600080866001600160a01b03168587604051611d7f9190613e64565b60006040518083038185875af1925050503d8060008114611dbc576040519150601f19603f3d011682016040523d82523d6000602084013e611dc1565b606091505b5091509150611dd287838387612ccb565b925050505b949350505050565b611de98382612d41565b610b6b6001600160a01b037f0000000000000000000000000000000000000000000000000000000000000000168383612eb8565b6001600160a01b03838116600090815260ca60209081526040808320938616835292905220546000198114611ea95781811015611e9c5760405162461bcd60e51b815260206004820152601d60248201527f45524332303a20696e73756666696369656e7420616c6c6f77616e63650000006044820152606401610b0c565b611ea98484848403611b93565b50505050565b6001600160a01b038316611f2b5760405162461bcd60e51b815260206004820152602560248201527f45524332303a207472616e736665722066726f6d20746865207a65726f20616460448201527f64726573730000000000000000000000000000000000000000000000000000006064820152608401610b0c565b6001600160a01b038216611fa75760405162461bcd60e51b815260206004820152602360248201527f45524332303a207472616e7366657220746f20746865207a65726f206164647260448201527f65737300000000000000000000000000000000000000000000000000000000006064820152608401610b0c565b611fb2838383612f38565b6001600160a01b038316600090815260c96020526040902054818110156120415760405162461bcd60e51b815260206004820152602660248201527f45524332303a207472616e7366657220616d6f756e742065786365656473206260448201527f616c616e636500000000000000000000000000000000000000000000000000006064820152608401610b0c565b6001600160a01b03808516600081815260c9602052604080822086860390559286168082529083902080548601905591517fddf252ad1be2c89b69c2b068fc378daa952ba7f163c4a11628f55a4df523b3ef906120a19086815260200190565b60405180910390a3611ea9565b610164546120c79030906001600160a01b031683611b93565b610164546040517f40c10f190000000000000000000000000000000000000000000000000000000081526001600160a01b03848116600483015260248201849052909116906340c10f1990604401600060405180830381600087803b15801561212f57600080fd5b505af1158015612143573d6000803e3d6000fd5b505050505050565b6000610cca612f40565b6040517f07a2d13a000000000000000000000000000000000000000000000000000000008152670de0b6b3a764000060048201526000907f00000000000000000000000000000000000000000000000000000000000000006001600160a01b0316906307a2d13a90602401611a6c565b6033546001600160a01b031633146111285760405162461bcd60e51b815260206004820181905260248201527f4f776e61626c653a2063616c6c6572206973206e6f7420746865206f776e65726044820152606401610b0c565b806001600160a01b031663621fd5076040518163ffffffff1660e01b8152600401602060405180830381865afa15801561225d573d6000803e3d6000fd5b505050506040513d601f19601f820116820180604052508101906122819190613e80565b6122f35760405162461bcd60e51b815260206004820152602760248201527f5f7365744c656e64696e67496e7465726e616c3a205f69546f6b656e2069732060448201527f696e76616c6964000000000000000000000000000000000000000000000000006064820152608401610b0c565b610164805473ffffffffffffffffffffffffffffffffffffffff19166001600160a01b0392909216919091179055565b600080600061016460009054906101000a90046001600160a01b03166001600160a01b031663f77c47916040518163ffffffff1660e01b8152600401602060405180830381865afa15801561237c573d6000803e3d6000fd5b505050506040513d601f19601f820116820180604052508101906123a09190613d2e565b6001600160a01b0316632630c12f6040518163ffffffff1660e01b8152600401602060405180830381865afa1580156123dd573d6000803e3d6000fd5b505050506040513d601f19601f820116820180604052508101906124019190613d2e565b610164546040517fed5cf2dc0000000000000000000000000000000000000000000000000000000081526001600160a01b03918216600482015291169063ed5cf2dc9060240160408051808303816000875af1158015612465573d6000803e3d6000fd5b505050506040513d601f19601f820116820180604052508101906124899190613e9b565b9150915060008211801561249a5750805b61250b5760405162461bcd60e51b8152602060048201526024808201527f676574556e6465726c79696e6750726963653a20707269636520697320696e7660448201527f616c6964000000000000000000000000000000000000000000000000000000006064820152608401610b0c565b50919050565b600054610100900460ff1661257c5760405162461bcd60e51b815260206004820152602b60248201527f496e697469616c697a61626c653a20636f6e7472616374206973206e6f74206960448201526a6e697469616c697a696e6760a81b6064820152608401610b0c565b611128612fb4565b600054610100900460ff166125ef5760405162461bcd60e51b815260206004820152602b60248201527f496e697469616c697a61626c653a20636f6e7472616374206973206e6f74206960448201526a6e697469616c697a696e6760a81b6064820152608401610b0c565b611128613028565b600054610100900460ff166126625760405162461bcd60e51b815260206004820152602b60248201527f496e697469616c697a61626c653a20636f6e7472616374206973206e6f74206960448201526a6e697469616c697a696e6760a81b6064820152608401610b0c565b610c7d828261309f565b600054610100900460ff166126d75760405162461bcd60e51b815260206004820152602b60248201527f496e697469616c697a61626c653a20636f6e7472616374206973206e6f74206960448201526a6e697469616c697a696e6760a81b6064820152608401610b0c565b610e11816040518060400160405280600181526020017f3100000000000000000000000000000000000000000000000000000000000000815250613131565b60606000611b8c836131d2565b61272b61322e565b6097805460ff191660011790557f62e78cea01bee320cd4e420270b5ea74000d11b0c9f74754ebdbfc544b05a2586127603390565b6040516001600160a01b03909116815260200160405180910390a1565b6065805473ffffffffffffffffffffffffffffffffffffffff19169055610e1181613281565b6127af610162826132e0565b6128215760405162461bcd60e51b815260206004820152603360248201527f5f72656d6f766557686974656c697374496e7465726e616c3a205f6163636f7560448201527f6e7420686173206265656e2072656d6f766564000000000000000000000000006064820152608401610b0c565b6040516001600160a01b03821681527fde8cf212af7ce38b2840785a2768d97ff2dbf3c21b516961cec0061e134c2a1e906020015b60405180910390a150565b6128696132f5565b6097805460ff191690557f5db9ee0a495bf2e6ff9c91a7834c1ba4fdd244a5e8aa4e537bd38aeae4b073aa33612760565b6000670de0b6b3a76400006128ad612155565b6128b79084613e23565b6128c990670de0b6b3a763ffff613ddb565b6109e59190613e42565b606060fd80546109fa90613cf9565b606060fe80546109fa90613cf9565b6000610cca60cb5490565b60006109e561016283613347565b6001600160a01b0381166129865760405162461bcd60e51b815260206004820152603060248201527f5f61646457686974656c697374496e7465726e616c3a205f6163636f756e742060448201527f746865207a65726f2061646472657373000000000000000000000000000000006064820152608401610b0c565b61299261016282613369565b612a045760405162461bcd60e51b815260206004820152602e60248201527f5f61646457686974656c697374496e7465726e616c3a205f6163636f756e742060448201527f686173206265656e2061646465640000000000000000000000000000000000006064820152608401610b0c565b6040516001600160a01b03821681527f4790a4adb426ca2345bb5108f6e454eae852a7bf687544cd66a7270dff3a41d690602001612856565b6001600160a01b038116600090815261012f6020526040902080546001810182559061250b565b60006109e5612a7161214b565b836040517f19010000000000000000000000000000000000000000000000000000000000008152600281019290925260228201526042902090565b6000806000612abd8787878761337e565b91509150612aca81613442565b5095945050505050565b6040517f70a0823100000000000000000000000000000000000000000000000000000000815230600482015260009081906001600160a01b037f000000000000000000000000000000000000000000000000000000000000000016906370a0823190602401602060405180830381865afa158015612b56573d6000803e3d6000fd5b505050506040513d601f19601f82011682018060405250810190612b7a9190613df3565b905060006115996128f1565b6000612b90612155565b6128c983670de0b6b3a7640000613e23565b600080612bad612155565b905080612bbb600182613e0c565b612bcd85670de0b6b3a7640000613e23565b612bd79190613ddb565b611b8c9190613e42565b6000670de0b6b3a7640000612bf4612155565b6128c99084613e23565b6001600160a01b038216612c545760405162461bcd60e51b815260206004820152601f60248201527f45524332303a206d696e7420746f20746865207a65726f2061646472657373006044820152606401610b0c565b612c6060008383612f38565b8060cb6000828254612c729190613ddb565b90915550506001600160a01b038216600081815260c960209081526040808320805486019055518481527fddf252ad1be2c89b69c2b068fc378daa952ba7f163c4a11628f55a4df523b3ef910160405180910390a35050565b60608315612d37578251612d30576001600160a01b0385163b612d305760405162461bcd60e51b815260206004820152601d60248201527f416464726573733a2063616c6c20746f206e6f6e2d636f6e74726163740000006044820152606401610b0c565b5081611dd7565b611dd783836135ab565b6001600160a01b038216612dbd5760405162461bcd60e51b815260206004820152602160248201527f45524332303a206275726e2066726f6d20746865207a65726f2061646472657360448201527f73000000000000000000000000000000000000000000000000000000000000006064820152608401610b0c565b612dc982600083612f38565b6001600160a01b038216600090815260c9602052604090205481811015612e585760405162461bcd60e51b815260206004820152602260248201527f45524332303a206275726e20616d6f756e7420657863656564732062616c616e60448201527f63650000000000000000000000000000000000000000000000000000000000006064820152608401610b0c565b6001600160a01b038316600081815260c960209081526040808320868603905560cb80548790039055518581529192917fddf252ad1be2c89b69c2b068fc378daa952ba7f163c4a11628f55a4df523b3ef910160405180910390a3505050565b604080516001600160a01b038416602482015260448082018490528251808303909101815260649091019091526020810180517bffffffffffffffffffffffffffffffffffffffffffffffffffffffff167fa9059cbb00000000000000000000000000000000000000000000000000000000179052610b6b9084906135d5565b610b6b61322e565b60007f8b73c3c69bb8fe3d512ecc4cf759cc79239f7b179b0ffacaa9a75d522b39400f612f6b6136bd565b612f7361371a565b60408051602081019490945283019190915260608201524660808201523060a082015260c00160405160208183030381529060405280519060200120905090565b600054610100900460ff1661301f5760405162461bcd60e51b815260206004820152602b60248201527f496e697469616c697a61626c653a20636f6e7472616374206973206e6f74206960448201526a6e697469616c697a696e6760a81b6064820152608401610b0c565b6111283361277d565b600054610100900460ff166130935760405162461bcd60e51b815260206004820152602b60248201527f496e697469616c697a61626c653a20636f6e7472616374206973206e6f74206960448201526a6e697469616c697a696e6760a81b6064820152608401610b0c565b6097805460ff19169055565b600054610100900460ff1661310a5760405162461bcd60e51b815260206004820152602b60248201527f496e697469616c697a61626c653a20636f6e7472616374206973206e6f74206960448201526a6e697469616c697a696e6760a81b6064820152608401610b0c565b815161311d9060cc90602085019061389c565b508051610b6b9060cd90602084019061389c565b600054610100900460ff1661319c5760405162461bcd60e51b815260206004820152602b60248201527f496e697469616c697a61626c653a20636f6e7472616374206973206e6f74206960448201526a6e697469616c697a696e6760a81b6064820152608401610b0c565b81516131af9060fd90602085019061389c565b5080516131c39060fe90602084019061389c565b5050600060fb81905560fc5550565b60608160000180548060200260200160405190810160405280929190818152602001828054801561322257602002820191906000526020600020905b81548152602001906001019080831161320e575b50505050509050919050565b60975460ff16156111285760405162461bcd60e51b815260206004820152601060248201527f5061757361626c653a20706175736564000000000000000000000000000000006044820152606401610b0c565b603380546001600160a01b0383811673ffffffffffffffffffffffffffffffffffffffff19831681179093556040519116919082907f8be0079c531659141344cd1fd0a4f28419497f9722a3daafe3b4186f6b6457e090600090a35050565b6000611b8c836001600160a01b03841661374b565b60975460ff166111285760405162461bcd60e51b815260206004820152601460248201527f5061757361626c653a206e6f74207061757365640000000000000000000000006044820152606401610b0c565b6001600160a01b03811660009081526001830160205260408120541515611b8c565b6000611b8c836001600160a01b03841661383e565b6000807f7fffffffffffffffffffffffffffffff5d576e7357a4501ddfe92f46681b20a08311156133b55750600090506003613439565b6040805160008082526020820180845289905260ff881692820192909252606081018690526080810185905260019060a0016020604051602081039080840390855afa158015613409573d6000803e3d6000fd5b5050604051601f1901519150506001600160a01b03811661343257600060019250925050613439565b9150600090505b94509492505050565b600081600481111561345657613456613ec7565b141561345f5750565b600181600481111561347357613473613ec7565b14156134c15760405162461bcd60e51b815260206004820152601860248201527f45434453413a20696e76616c6964207369676e617475726500000000000000006044820152606401610b0c565b60028160048111156134d5576134d5613ec7565b14156135235760405162461bcd60e51b815260206004820152601f60248201527f45434453413a20696e76616c6964207369676e6174757265206c656e677468006044820152606401610b0c565b600381600481111561353757613537613ec7565b1415610e115760405162461bcd60e51b815260206004820152602260248201527f45434453413a20696e76616c6964207369676e6174757265202773272076616c60448201527f75650000000000000000000000000000000000000000000000000000000000006064820152608401610b0c565b8151156135bb5781518083602001fd5b8060405162461bcd60e51b8152600401610b0c91906139b6565b600061362a826040518060400160405280602081526020017f5361666545524332303a206c6f772d6c6576656c2063616c6c206661696c6564815250856001600160a01b031661388d9092919063ffffffff16565b905080516000148061364b57508080602001905181019061364b9190613e80565b610b6b5760405162461bcd60e51b815260206004820152602a60248201527f5361666545524332303a204552433230206f7065726174696f6e20646964206e60448201527f6f742073756363656564000000000000000000000000000000000000000000006064820152608401610b0c565b6000806136c86128d3565b8051909150156136df578051602090910120919050565b60fb5480156136ee5792915050565b7fc5d2460186f7233c927e7db2dcc703c0e500b653ca82273b7bfad8045d85a4709250505090565b5090565b6000806137256128e2565b80519091501561373c578051602090910120919050565b60fc5480156136ee5792915050565b6000818152600183016020526040812054801561383457600061376f600183613e0c565b855490915060009061378390600190613e0c565b90508181146137e85760008660000182815481106137a3576137a3613edd565b90600052602060002001549050808760000184815481106137c6576137c6613edd565b6000918252602080832090910192909255918252600188019052604090208390555b85548690806137f9576137f9613ef3565b6001900381819060005260206000200160009055905585600101600086815260200190815260200160002060009055600193505050506109e5565b60009150506109e5565b6000818152600183016020526040812054613885575081546001818101845560008481526020808220909301849055845484825282860190935260409020919091556109e5565b5060006109e5565b6060611dd78484600085611ceb565b8280546138a890613cf9565b90600052602060002090601f0160209004810192826138ca5760008555613910565b82601f106138e357805160ff1916838001178555613910565b82800160010185558215613910579182015b828111156139105782518255916020019190600101906138f5565b506137169291505b808211156137165760008155600101613918565b6001600160a01b0381168114610e1157600080fd5b60006020828403121561395357600080fd5b8135611b8c8161392c565b60005b83811015613979578181015183820152602001613961565b83811115611ea95750506000910152565b600081518084526139a281602086016020860161395e565b601f01601f19169290920160200192915050565b602081526000611b8c602083018461398a565b600080604083850312156139dc57600080fd5b82356139e78161392c565b946020939093013593505050565b600080600060608486031215613a0a57600080fd5b8335613a158161392c565b92506020840135613a258161392c565b929592945050506040919091013590565b600060208284031215613a4857600080fd5b5035919050565b634e487b7160e01b600052604160045260246000fd5b600082601f830112613a7657600080fd5b813567ffffffffffffffff80821115613a9157613a91613a4f565b604051601f8301601f19908116603f01168101908282118183101715613ab957613ab9613a4f565b81604052838152866020858801011115613ad257600080fd5b836020870160208301376000602085830101528094505050505092915050565b60008060408385031215613b0557600080fd5b823567ffffffffffffffff80821115613b1d57600080fd5b613b2986838701613a65565b93506020850135915080821115613b3f57600080fd5b50613b4c85828601613a65565b9150509250929050565b6020808252825182820181905260009190848201906040850190845b81811015610c665783516001600160a01b031683529284019291840191600101613b72565b7fff00000000000000000000000000000000000000000000000000000000000000881681526000602060e081840152613bd360e084018a61398a565b8381036040850152613be5818a61398a565b606085018990526001600160a01b038816608086015260a0850187905284810360c0860152855180825283870192509083019060005b81811015613c3757835183529284019291840191600101613c1b565b50909c9b505050505050505050505050565b600080600080600080600060e0888a031215613c6457600080fd5b8735613c6f8161392c565b96506020880135613c7f8161392c565b95506040880135945060608801359350608088013560ff81168114613ca357600080fd5b9699959850939692959460a0840135945060c09093013592915050565b60008060408385031215613cd357600080fd5b8235613cde8161392c565b91506020830135613cee8161392c565b809150509250929050565b600181811c90821680613d0d57607f821691505b6020821081141561250b57634e487b7160e01b600052602260045260246000fd5b600060208284031215613d4057600080fd5b8151611b8c8161392c565b8051801515811461100557600080fd5b600080600080600080600060e0888a031215613d7657600080fd5b87519650602088015195506040880151945060608801519350613d9b60808901613d4b565b9250613da960a08901613d4b565b9150613db760c08901613d4b565b905092959891949750929550565b634e487b7160e01b600052601160045260246000fd5b60008219821115613dee57613dee613dc5565b500190565b600060208284031215613e0557600080fd5b5051919050565b600082821015613e1e57613e1e613dc5565b500390565b6000816000190483118215151615613e3d57613e3d613dc5565b500290565b600082613e5f57634e487b7160e01b600052601260045260246000fd5b500490565b60008251613e7681846020870161395e565b9190910192915050565b600060208284031215613e9257600080fd5b611b8c82613d4b565b60008060408385031215613eae57600080fd5b82519150613ebe60208401613d4b565b90509250929050565b634e487b7160e01b600052602160045260246000fd5b634e487b7160e01b600052603260045260246000fd5b634e487b7160e01b600052603160045260246000fdfea26469706673582212204a1fe3758b9ce5234bef0cb30a5b9c68986deb97213a8663936eeba438a6816464736f6c634300080a0033",
  "devdoc": {
    "author": "dForce engineer",
    "details": "Contains the main logic for ssvETH token functionality.",
    "kind": "dev",
    "methods": {
      "DOMAIN_SEPARATOR()": {
        "details": "See {IERC20Permit-DOMAIN_SEPARATOR}."
      },
      "_addWhitelist(address)": {
        "details": "Add a new account into the whitelist."
      },
      "_close()": {
        "details": "Pauses the contract."
      },
      "_open()": {
        "details": "Unpauses the contract."
      },
      "_removeWhitelist(address)": {
        "details": "Remove an exist account from the whitelist."
      },
      "_setLending(address)": {
        "details": "Sets the lending parameters for the contract.",
        "params": {
          "_iToken": "The iToken to be set for lending."
        }
      },
      "acceptOwnership()": {
        "details": "The new owner accepts the ownership transfer."
      },
      "allowance(address,address)": {
        "details": "See {IERC20-allowance}."
      },
      "approve(address,uint256)": {
        "details": "See {IERC20-approve}. NOTE: If `amount` is the maximum `uint256`, the allowance is not updated on `transferFrom`. This is semantically equivalent to an infinite approval. Requirements: - `spender` cannot be the zero address."
      },
      "asset()": {
        "details": "External function to retrieve the asset token address.",
        "returns": {
          "_0": "The asset token address."
        }
      },
      "assetConsumed()": {
        "details": "External function to retrieve the amount of asset consumed.",
        "returns": {
          "_0": "The amount of asset consumed."
        }
      },
      "assetQuota()": {
        "details": "External function to retrieve the remaining asset quota available for consumption.",
        "returns": {
          "_0": "_assetQuota The remaining asset quota."
        }
      },
      "balanceOf(address)": {
        "details": "See {IERC20-balanceOf}."
      },
      "claimETH(address,uint256)": {
        "details": "Claims ETH and transfers it to the specified address.",
        "params": {
          "_ethAmount": "The amount of ETH to claim.",
          "_to": "The address to receive the ETH."
        }
      },
      "constructor": {
        "details": "Constructor function for ssvETH token.",
        "params": {
          "_asset": "The underlying asset for the ssvETH token."
        }
      },
      "decimals()": {
        "details": "Returns the number of decimals used to get its user representation. For example, if `decimals` equals `2`, a balance of `505` tokens should be displayed to a user as `5.05` (`505 / 10 ** 2`). Tokens usually opt for a value of 18, imitating the relationship between Ether and Wei. This is the default value returned by this function, unless it's overridden. NOTE: This information is only used for _display_ purposes: it in no way affects any of the arithmetic of the contract, including {IERC20-balanceOf} and {IERC20-transfer}."
      },
      "decreaseAllowance(address,uint256)": {
        "details": "Atomically decreases the allowance granted to `spender` by the caller. This is an alternative to {approve} that can be used as a mitigation for problems described in {IERC20-approve}. Emits an {Approval} event indicating the updated allowance. Requirements: - `spender` cannot be the zero address. - `spender` must have allowance for the caller of at least `subtractedValue`."
      },
      "depositStatus()": {
        "details": "Returns the deposit status of the pool."
      },
      "eip712Domain()": {
        "details": "See {EIP-5267}. _Available since v4.9._"
      },
      "exchangeRate()": {
        "details": "External function to retrieve the exchange rate between asset and Ether.",
        "returns": {
          "_0": "The current exchange rate."
        }
      },
      "getIutputAsset(uint256)": {
        "details": "External function to get the amount of asset to input based on the given Ether amount.",
        "params": {
          "_ethAmount": "The amount of Ether to convert to asset."
        },
        "returns": {
          "_assetAmount": "The calculated amount of asset to input."
        }
      },
      "getIutputEth(uint256)": {
        "details": "External function to get the amount of Ether to input based on the given asset amount.",
        "params": {
          "_assetAmount": "The amount of the asset to convert to Ether."
        },
        "returns": {
          "_ethAmount": "The calculated amount of Ether to input."
        }
      },
      "getOutputAsset(uint256)": {
        "details": "External function to get the amount of asset to output based on the given Ether amount.",
        "params": {
          "_ethAmount": "The amount of Ether to convert to asset."
        },
        "returns": {
          "_assetAmount": "The calculated amount of asset to output."
        }
      },
      "getOutputEth(uint256)": {
        "details": "External function to get the amount of Ether to output based on the given asset amount.",
        "params": {
          "_assetAmount": "The amount of the asset to convert from Ether."
        },
        "returns": {
          "_ethAmount": "The calculated amount of Ether to output."
        }
      },
      "iToken()": {
        "details": "Returns the underlying asset of the pool."
      },
      "increaseAllowance(address,uint256)": {
        "details": "Atomically increases the allowance granted to `spender` by the caller. This is an alternative to {approve} that can be used as a mitigation for problems described in {IERC20-approve}. Emits an {Approval} event indicating the updated allowance. Requirements: - `spender` cannot be the zero address."
      },
      "initialize(string,string)": {
        "details": "Initializes the contract with required initializations for Ownable, Pausable, ERC20, and ERC20 Permit."
      },
      "isWhitelist(address)": {
        "details": "Checks if the account is whitelisted.",
        "params": {
          "_account": "The address to check."
        },
        "returns": {
          "_0": "True if the account is whitelisted, false otherwise."
        }
      },
      "lendingCash()": {
        "details": "Returns the available cash (liquidity) in the pool.",
        "returns": {
          "_0": "The amount of available cash in the pool."
        }
      },
      "limitOfDeposit()": {
        "details": "Returns the remaining deposit limit of the pool."
      },
      "name()": {
        "details": "Returns the name of the token."
      },
      "nonces(address)": {
        "details": "See {IERC20Permit-nonces}."
      },
      "owner()": {
        "details": "Returns the address of the current owner."
      },
      "paused()": {
        "details": "Returns true if the contract is paused, and false otherwise."
      },
      "pendingOwner()": {
        "details": "Returns the address of the pending owner."
      },
      "permit(address,address,uint256,uint256,uint8,bytes32,bytes32)": {
        "details": "See {IERC20Permit-permit}."
      },
      "renounceOwnership()": {
        "details": "Leaves the contract without owner. It will not be possible to call `onlyOwner` functions. Can only be called by the current owner. NOTE: Renouncing ownership will leave the contract without an owner, thereby disabling any functionality that is only available to the owner."
      },
      "symbol()": {
        "details": "Returns the symbol of the token, usually a shorter version of the name."
      },
      "totalAsset()": {
        "details": "External function to retrieve the total amount of the asset held by the contract.",
        "returns": {
          "_0": "The total amount of the asset held by the contract."
        }
      },
      "totalSupply()": {
        "details": "See {IERC20-totalSupply}."
      },
      "transfer(address,uint256)": {
        "details": "See {IERC20-transfer}. Requirements: - `to` cannot be the zero address. - the caller must have a balance of at least `amount`."
      },
      "transferFrom(address,address,uint256)": {
        "details": "See {IERC20-transferFrom}. Emits an {Approval} event indicating the updated allowance. This is not required by the EIP. See the note at the beginning of {ERC20}. NOTE: Does not update the allowance if the current allowance is the maximum `uint256`. Requirements: - `from` and `to` cannot be the zero address. - `from` must have a balance of at least `amount`. - the caller must have allowance for ``from``'s tokens of at least `amount`."
      },
      "transferOwnership(address)": {
        "details": "Starts the ownership transfer of the contract to a new account. Replaces the pending transfer if there is one. Can only be called by the current owner."
      },
      "unwrapToAsset(address,uint256)": {
        "details": "Unwraps assets to the specified amount and transfers them to the specified address.",
        "params": {
          "_amount": "The amount of assets to unwrap and transfer.",
          "_to": "The address to receive the unwrapped assets."
        }
      },
      "unwrapToAsset(uint256)": {
        "details": "Unwraps assets to the specified amount and transfers them to the sender.",
        "params": {
          "_amount": "The amount of assets to unwrap and transfer."
        }
      },
      "whitelists()": {
        "returns": {
          "_whitelists": "The list of account addresses"
        }
      },
      "withdrawAndUnwrapToAsset(address,uint256)": {
        "details": "Redeems iToken assets and unwraps them to the corresponding amount, transferring them to the specified address.",
        "params": {
          "_iTokenAmount": "The amount of iToken assets to redeem and unwrap.",
          "_to": "The address to receive the unwrapped assets."
        }
      },
      "withdrawAndUnwrapToAsset(uint256)": {
        "details": "Redeems iToken assets and unwraps them to the corresponding amount, transferring them to the sender.",
        "params": {
          "_iTokenAmount": "The amount of iToken assets to redeem and unwrap."
        }
      },
      "withdrawStatus()": {
        "details": "Returns the withdraw status of the pool."
      },
      "withdrawUnderlyingAndUnwrapToAsset(address,uint256)": {
        "details": "Redeems underlying assets and unwraps them to the specified amount, transferring them to the specified address.",
        "params": {
          "_amount": "The amount of underlying assets to redeem and unwrap.",
          "_to": "The address to receive the unwrapped assets."
        }
      },
      "withdrawUnderlyingAndUnwrapToAsset(uint256)": {
        "details": "Redeems underlying assets and unwraps them to the specified amount, transferring them to the sender.",
        "params": {
          "_amount": "The amount of underlying assets to redeem and unwrap."
        }
      },
      "wrap()": {
        "details": "Wraps ETH into assets and returns the corresponding amount of assets to the sender."
      },
      "wrap(address)": {
        "details": "Wraps ETH into assets and returns the corresponding amount of assets to the specified address.",
        "params": {
          "_to": "The address to receive the wrapped assets."
        }
      },
      "wrapAndDeposit()": {
        "details": "Wraps ETH into assets, mints the corresponding amount of assets to the contract, and deposits them to the sender."
      },
      "wrapAndDeposit(address)": {
        "details": "Wraps ETH into assets, mints the corresponding amount of assets to the contract, and deposits them to the specified address.",
        "params": {
          "_to": "The address to receive the minted assets."
        }
      }
    },
    "title": "ssvETH",
    "version": 1
  },
  "userdoc": {
    "kind": "user",
    "methods": {
      "_close()": {
        "notice": "This function can only be called by the pause guardian."
      },
      "_open()": {
        "notice": "This function can only be called by the contract owner."
      },
      "_setLending(address)": {
        "notice": "Only the contract owner can call this function."
      },
      "claimETH(address,uint256)": {
        "notice": "Only addresses in the whitelist can call this function."
      },
      "initialize(string,string)": {
        "notice": "Initializes the ssvETH token with the provided name and symbol."
      },
      "whitelists()": {
        "notice": "Return all whitelists"
      }
    },
    "notice": "Implements functionality for ssvETH token.",
    "version": 1
  },
  "storageLayout": {
    "storage": [
      {
        "astId": 269,
        "contract": "src/ssvETH.sol:ssvETH",
        "label": "_initialized",
        "offset": 0,
        "slot": "0",
        "type": "t_uint8"
      },
      {
        "astId": 272,
        "contract": "src/ssvETH.sol:ssvETH",
        "label": "_initializing",
        "offset": 1,
        "slot": "0",
        "type": "t_bool"
      },
      {
        "astId": 1871,
        "contract": "src/ssvETH.sol:ssvETH",
        "label": "__gap",
        "offset": 0,
        "slot": "1",
        "type": "t_array(t_uint256)50_storage"
      },
      {
        "astId": 116,
        "contract": "src/ssvETH.sol:ssvETH",
        "label": "_owner",
        "offset": 0,
        "slot": "51",
        "type": "t_address"
      },
      {
        "astId": 236,
        "contract": "src/ssvETH.sol:ssvETH",
        "label": "__gap",
        "offset": 0,
        "slot": "52",
        "type": "t_array(t_uint256)49_storage"
      },
      {
        "astId": 25,
        "contract": "src/ssvETH.sol:ssvETH",
        "label": "_pendingOwner",
        "offset": 0,
        "slot": "101",
        "type": "t_address"
      },
      {
        "astId": 104,
        "contract": "src/ssvETH.sol:ssvETH",
        "label": "__gap",
        "offset": 0,
        "slot": "102",
        "type": "t_array(t_uint256)49_storage"
      },
      {
        "astId": 452,
        "contract": "src/ssvETH.sol:ssvETH",
        "label": "_paused",
        "offset": 0,
        "slot": "151",
        "type": "t_bool"
      },
      {
        "astId": 557,
        "contract": "src/ssvETH.sol:ssvETH",
        "label": "__gap",
        "offset": 0,
        "slot": "152",
        "type": "t_array(t_uint256)49_storage"
      },
      {
        "astId": 577,
        "contract": "src/ssvETH.sol:ssvETH",
        "label": "_balances",
        "offset": 0,
        "slot": "201",
        "type": "t_mapping(t_address,t_uint256)"
      },
      {
        "astId": 583,
        "contract": "src/ssvETH.sol:ssvETH",
        "label": "_allowances",
        "offset": 0,
        "slot": "202",
        "type": "t_mapping(t_address,t_mapping(t_address,t_uint256))"
      },
      {
        "astId": 585,
        "contract": "src/ssvETH.sol:ssvETH",
        "label": "_totalSupply",
        "offset": 0,
        "slot": "203",
        "type": "t_uint256"
      },
      {
        "astId": 587,
        "contract": "src/ssvETH.sol:ssvETH",
        "label": "_name",
        "offset": 0,
        "slot": "204",
        "type": "t_string_storage"
      },
      {
        "astId": 589,
        "contract": "src/ssvETH.sol:ssvETH",
        "label": "_symbol",
        "offset": 0,
        "slot": "205",
        "type": "t_string_storage"
      },
      {
        "astId": 1169,
        "contract": "src/ssvETH.sol:ssvETH",
        "label": "__gap",
        "offset": 0,
        "slot": "206",
        "type": "t_array(t_uint256)45_storage"
      },
      {
        "astId": 2559,
        "contract": "src/ssvETH.sol:ssvETH",
        "label": "_hashedName",
        "offset": 0,
        "slot": "251",
        "type": "t_bytes32"
      },
      {
        "astId": 2562,
        "contract": "src/ssvETH.sol:ssvETH",
        "label": "_hashedVersion",
        "offset": 0,
        "slot": "252",
        "type": "t_bytes32"
      },
      {
        "astId": 2564,
        "contract": "src/ssvETH.sol:ssvETH",
        "label": "_name",
        "offset": 0,
        "slot": "253",
        "type": "t_string_storage"
      },
      {
        "astId": 2566,
        "contract": "src/ssvETH.sol:ssvETH",
        "label": "_version",
        "offset": 0,
        "slot": "254",
        "type": "t_string_storage"
      },
      {
        "astId": 2824,
        "contract": "src/ssvETH.sol:ssvETH",
        "label": "__gap",
        "offset": 0,
        "slot": "255",
        "type": "t_array(t_uint256)48_storage"
      },
      {
        "astId": 1274,
        "contract": "src/ssvETH.sol:ssvETH",
        "label": "_nonces",
        "offset": 0,
        "slot": "303",
        "type": "t_mapping(t_address,t_struct(Counter)1878_storage)"
      },
      {
        "astId": 1282,
        "contract": "src/ssvETH.sol:ssvETH",
        "label": "_PERMIT_TYPEHASH_DEPRECATED_SLOT",
        "offset": 0,
        "slot": "304",
        "type": "t_bytes32"
      },
      {
        "astId": 1438,
        "contract": "src/ssvETH.sol:ssvETH",
        "label": "__gap",
        "offset": 0,
        "slot": "305",
        "type": "t_array(t_uint256)49_storage"
      },
      {
        "astId": 5607,
        "contract": "src/ssvETH.sol:ssvETH",
        "label": "whitelists_",
        "offset": 0,
        "slot": "354",
        "type": "t_struct(AddressSet)5135_storage"
      },
      {
        "astId": 5986,
        "contract": "src/ssvETH.sol:ssvETH",
        "label": "iToken_",
        "offset": 0,
        "slot": "356",
        "type": "t_contract(IiToken)5533"
      }
    ],
    "types": {
      "t_address": {
        "encoding": "inplace",
        "label": "address",
        "numberOfBytes": "20"
      },
      "t_array(t_bytes32)dyn_storage": {
        "base": "t_bytes32",
        "encoding": "dynamic_array",
        "label": "bytes32[]",
        "numberOfBytes": "32"
      },
      "t_array(t_uint256)45_storage": {
        "base": "t_uint256",
        "encoding": "inplace",
        "label": "uint256[45]",
        "numberOfBytes": "1440"
      },
      "t_array(t_uint256)48_storage": {
        "base": "t_uint256",
        "encoding": "inplace",
        "label": "uint256[48]",
        "numberOfBytes": "1536"
      },
      "t_array(t_uint256)49_storage": {
        "base": "t_uint256",
        "encoding": "inplace",
        "label": "uint256[49]",
        "numberOfBytes": "1568"
      },
      "t_array(t_uint256)50_storage": {
        "base": "t_uint256",
        "encoding": "inplace",
        "label": "uint256[50]",
        "numberOfBytes": "1600"
      },
      "t_bool": {
        "encoding": "inplace",
        "label": "bool",
        "numberOfBytes": "1"
      },
      "t_bytes32": {
        "encoding": "inplace",
        "label": "bytes32",
        "numberOfBytes": "32"
      },
      "t_contract(IiToken)5533": {
        "encoding": "inplace",
        "label": "contract IiToken",
        "numberOfBytes": "20"
      },
      "t_mapping(t_address,t_mapping(t_address,t_uint256))": {
        "encoding": "mapping",
        "key": "t_address",
        "label": "mapping(address => mapping(address => uint256))",
        "numberOfBytes": "32",
        "value": "t_mapping(t_address,t_uint256)"
      },
      "t_mapping(t_address,t_struct(Counter)1878_storage)": {
        "encoding": "mapping",
        "key": "t_address",
        "label": "mapping(address => struct CountersUpgradeable.Counter)",
        "numberOfBytes": "32",
        "value": "t_struct(Counter)1878_storage"
      },
      "t_mapping(t_address,t_uint256)": {
        "encoding": "mapping",
        "key": "t_address",
        "label": "mapping(address => uint256)",
        "numberOfBytes": "32",
        "value": "t_uint256"
      },
      "t_mapping(t_bytes32,t_uint256)": {
        "encoding": "mapping",
        "key": "t_bytes32",
        "label": "mapping(bytes32 => uint256)",
        "numberOfBytes": "32",
        "value": "t_uint256"
      },
      "t_string_storage": {
        "encoding": "bytes",
        "label": "string",
        "numberOfBytes": "32"
      },
      "t_struct(AddressSet)5135_storage": {
        "encoding": "inplace",
        "label": "struct EnumerableSet.AddressSet",
        "members": [
          {
            "astId": 5134,
            "contract": "src/ssvETH.sol:ssvETH",
            "label": "_inner",
            "offset": 0,
            "slot": "0",
            "type": "t_struct(Set)4820_storage"
          }
        ],
        "numberOfBytes": "64"
      },
      "t_struct(Counter)1878_storage": {
        "encoding": "inplace",
        "label": "struct CountersUpgradeable.Counter",
        "members": [
          {
            "astId": 1877,
            "contract": "src/ssvETH.sol:ssvETH",
            "label": "_value",
            "offset": 0,
            "slot": "0",
            "type": "t_uint256"
          }
        ],
        "numberOfBytes": "32"
      },
      "t_struct(Set)4820_storage": {
        "encoding": "inplace",
        "label": "struct EnumerableSet.Set",
        "members": [
          {
            "astId": 4815,
            "contract": "src/ssvETH.sol:ssvETH",
            "label": "_values",
            "offset": 0,
            "slot": "0",
            "type": "t_array(t_bytes32)dyn_storage"
          },
          {
            "astId": 4819,
            "contract": "src/ssvETH.sol:ssvETH",
            "label": "_indexes",
            "offset": 0,
            "slot": "1",
            "type": "t_mapping(t_bytes32,t_uint256)"
          }
        ],
        "numberOfBytes": "64"
      },
      "t_uint256": {
        "encoding": "inplace",
        "label": "uint256",
        "numberOfBytes": "32"
      },
      "t_uint8": {
        "encoding": "inplace",
        "label": "uint8",
        "numberOfBytes": "1"
      }
    }
  }
}